{
  "contractName": "PoolManager",
  "abi": [
    {
      "inputs": [
        {
          "internalType": "address",
          "name": "_factory",
          "type": "address"
        }
      ],
      "payable": false,
      "stateMutability": "nonpayable",
      "type": "constructor"
    },
    {
      "anonymous": false,
      "inputs": [
        {
          "indexed": false,
          "internalType": "address",
          "name": "bpoolAddress",
          "type": "address"
        }
      ],
      "name": "PoolCreated",
      "type": "event"
    },
    {
      "anonymous": false,
      "inputs": [
        {
          "indexed": false,
          "internalType": "address",
          "name": "token",
          "type": "address"
        },
        {
          "indexed": false,
          "internalType": "address",
          "name": "currentPoolAddress",
          "type": "address"
        },
        {
          "indexed": false,
          "internalType": "uint256",
          "name": "balance",
          "type": "uint256"
        }
      ],
      "name": "TokenApproved",
      "type": "event"
    },
    {
      "anonymous": false,
      "inputs": [
        {
          "indexed": false,
          "internalType": "address",
          "name": "currentPool",
          "type": "address"
        },
        {
          "indexed": false,
          "internalType": "address",
          "name": "token",
          "type": "address"
        },
        {
          "indexed": false,
          "internalType": "uint256",
          "name": "balance",
          "type": "uint256"
        },
        {
          "indexed": false,
          "internalType": "uint256",
          "name": "denorm",
          "type": "uint256"
        }
      ],
      "name": "TokenBound",
      "type": "event"
    },
    {
      "anonymous": false,
      "inputs": [
        {
          "indexed": false,
          "internalType": "address",
          "name": "currentPool",
          "type": "address"
        },
        {
          "indexed": false,
          "internalType": "address",
          "name": "token",
          "type": "address"
        },
        {
          "indexed": false,
          "internalType": "uint256",
          "name": "balance",
          "type": "uint256"
        },
        {
          "indexed": false,
          "internalType": "uint256",
          "name": "denorm",
          "type": "uint256"
        }
      ],
      "name": "TokenRebound",
      "type": "event"
    },
    {
      "anonymous": false,
      "inputs": [
        {
          "indexed": false,
          "internalType": "address",
          "name": "currentPool",
          "type": "address"
        },
        {
          "indexed": false,
          "internalType": "address",
          "name": "token",
          "type": "address"
        }
      ],
      "name": "TokenUnbound",
      "type": "event"
    },
    {
      "constant": true,
      "inputs": [],
      "name": "factory",
      "outputs": [
        {
          "internalType": "address",
          "name": "",
          "type": "address"
        }
      ],
      "payable": false,
      "stateMutability": "view",
      "type": "function"
    },
    {
      "constant": true,
      "inputs": [],
      "name": "owner",
      "outputs": [
        {
          "internalType": "address",
          "name": "",
          "type": "address"
        }
      ],
      "payable": false,
      "stateMutability": "view",
      "type": "function"
    },
    {
      "constant": false,
      "inputs": [],
      "name": "createPool",
      "outputs": [
        {
          "internalType": "contract BPool",
          "name": "",
          "type": "address"
        }
      ],
      "payable": false,
      "stateMutability": "nonpayable",
      "type": "function"
    },
    {
      "constant": false,
      "inputs": [
        {
          "internalType": "address",
          "name": "_token",
          "type": "address"
        },
        {
          "internalType": "address",
          "name": "_currentPoolAddress",
          "type": "address"
        },
        {
          "internalType": "uint256",
          "name": "_balance",
          "type": "uint256"
        }
      ],
      "name": "approveToken",
      "outputs": [],
      "payable": false,
      "stateMutability": "nonpayable",
      "type": "function"
    },
    {
      "constant": true,
      "inputs": [
        {
          "internalType": "address",
          "name": "_currentPoolAddress",
          "type": "address"
        },
        {
          "internalType": "address",
          "name": "_token",
          "type": "address"
        }
      ],
      "name": "checkToken",
      "outputs": [
        {
          "internalType": "bool",
          "name": "",
          "type": "bool"
        }
      ],
      "payable": false,
      "stateMutability": "view",
      "type": "function"
    },
    {
      "constant": true,
      "inputs": [
        {
          "internalType": "address",
          "name": "_currentPoolAddress",
          "type": "address"
        },
        {
          "internalType": "address",
          "name": "_token",
          "type": "address"
        }
      ],
      "name": "normalizedWeight",
      "outputs": [
        {
          "internalType": "uint256",
          "name": "",
          "type": "uint256"
        }
      ],
      "payable": false,
      "stateMutability": "view",
      "type": "function"
    },
    {
      "constant": true,
      "inputs": [
        {
          "internalType": "address",
          "name": "_currentPoolAddress",
          "type": "address"
        },
        {
          "internalType": "address",
          "name": "_token",
          "type": "address"
        }
      ],
      "name": "denormalizedWeight",
      "outputs": [
        {
          "internalType": "uint256",
          "name": "",
          "type": "uint256"
        }
      ],
      "payable": false,
      "stateMutability": "view",
      "type": "function"
    },
    {
      "constant": true,
      "inputs": [
        {
          "internalType": "address",
          "name": "_currentPoolAddress",
          "type": "address"
        },
        {
          "internalType": "address",
          "name": "_token",
          "type": "address"
        }
      ],
      "name": "tokenBalance",
      "outputs": [
        {
          "internalType": "uint256",
          "name": "",
          "type": "uint256"
        }
      ],
      "payable": false,
      "stateMutability": "view",
      "type": "function"
    },
    {
      "constant": true,
      "inputs": [
        {
          "internalType": "address",
          "name": "_currentPoolAddress",
          "type": "address"
        }
      ],
      "name": "currentTokens",
      "outputs": [
        {
          "internalType": "address[]",
          "name": "",
          "type": "address[]"
        }
      ],
      "payable": false,
      "stateMutability": "view",
      "type": "function"
    },
    {
      "constant": false,
      "inputs": [
        {
          "internalType": "address",
          "name": "_currentPoolAddress",
          "type": "address"
        },
        {
          "internalType": "address",
          "name": "_token",
          "type": "address"
        },
        {
          "internalType": "uint256",
          "name": "_balance",
          "type": "uint256"
        },
        {
          "internalType": "uint256",
          "name": "_denorm",
          "type": "uint256"
        }
      ],
      "name": "bindToken",
      "outputs": [],
      "payable": false,
      "stateMutability": "nonpayable",
      "type": "function"
    },
    {
      "constant": false,
      "inputs": [
        {
          "internalType": "address",
          "name": "_currentPoolAddress",
          "type": "address"
        },
        {
          "internalType": "address",
          "name": "_token",
          "type": "address"
        },
        {
          "internalType": "uint256",
          "name": "_balance",
          "type": "uint256"
        },
        {
          "internalType": "uint256",
          "name": "_denorm",
          "type": "uint256"
        }
      ],
      "name": "rebindToken",
      "outputs": [],
      "payable": false,
      "stateMutability": "nonpayable",
      "type": "function"
    },
    {
      "constant": false,
      "inputs": [
        {
          "internalType": "address",
          "name": "_currentPoolAddress",
          "type": "address"
        },
        {
          "internalType": "address",
          "name": "_token",
          "type": "address"
        }
      ],
      "name": "unbindToken",
      "outputs": [],
      "payable": false,
      "stateMutability": "nonpayable",
      "type": "function"
    },
    {
      "constant": false,
      "inputs": [
        {
          "internalType": "address",
          "name": "_currentPoolAddress",
          "type": "address"
        },
        {
          "internalType": "uint256",
          "name": "_fee",
          "type": "uint256"
        }
      ],
      "name": "setFee",
      "outputs": [],
      "payable": false,
      "stateMutability": "nonpayable",
      "type": "function"
    },
    {
      "constant": true,
      "inputs": [
        {
          "internalType": "address",
          "name": "_currentPoolAddress",
          "type": "address"
        }
      ],
      "name": "swapFee",
      "outputs": [
        {
          "internalType": "uint256",
          "name": "",
          "type": "uint256"
        }
      ],
      "payable": false,
      "stateMutability": "view",
      "type": "function"
    },
    {
      "constant": false,
      "inputs": [
        {
          "internalType": "address",
          "name": "_currentPoolAddress",
          "type": "address"
        },
        {
          "internalType": "bool",
          "name": "_public",
          "type": "bool"
        }
      ],
      "name": "setPublic",
      "outputs": [],
      "payable": false,
      "stateMutability": "nonpayable",
      "type": "function"
    },
    {
      "constant": true,
      "inputs": [
        {
          "internalType": "address",
          "name": "_currentPoolAddress",
          "type": "address"
        }
      ],
      "name": "isPublic",
      "outputs": [
        {
          "internalType": "bool",
          "name": "",
          "type": "bool"
        }
      ],
      "payable": false,
      "stateMutability": "view",
      "type": "function"
    }
  ],
  "bytecode": "0x608060405234801561001057600080fd5b50604051610ec0380380610ec08339818101604052602081101561003357600080fd5b5051600080546001600160a01b03199081163317909155600180546001600160a01b0390931692909116919091179055610e4e806100726000396000f3fe608060405234801561001057600080fd5b50600436106100e05760003560e01c8063b9d6a8a511610087578063b9d6a8a51461023d578063c43f363e14610279578063c45a0155146102ef578063d7c980ca146102f7578063da3e339714610333578063e1fbf9ad14610369578063e55156b514610397578063feaef177146103c3576100e0565b80631049334f146100e55780634f054afe146101255780637367bac4146101535780637380726f1461018d5780638da5cb5b146101bb5780639a06b113146101df578063a6ae80e2146101e7578063b8518d231461020d575b600080fd5b610113600480360360408110156100fb57600080fd5b506001600160a01b03813581169160200135166103f1565b60408051918252519081900360200190f35b6101136004803603604081101561013b57600080fd5b506001600160a01b0381358116916020013516610481565b6101796004803603602081101561016957600080fd5b50356001600160a01b03166104dd565b604080519115158252519081900360200190f35b610179600480360360408110156101a357600080fd5b506001600160a01b038135811691602001351661054f565b6101c36105ab565b604080516001600160a01b039092168252519081900360200190f35b6101c36105ba565b610113600480360360208110156101fd57600080fd5b50356001600160a01b03166106c3565b61023b6004803603604081101561022357600080fd5b506001600160a01b0381351690602001351515610702565b005b61023b6004803603608081101561025357600080fd5b506001600160a01b038135811691602081013590911690604081013590606001356107b4565b61029f6004803603602081101561028f57600080fd5b50356001600160a01b03166108c7565b60408051602080825283518183015283519192839290830191858101910280838360005b838110156102db5781810151838201526020016102c3565b505050509050019250505060405180910390f35b6101c36109d8565b61023b6004803603608081101561030d57600080fd5b506001600160a01b038135811691602081013590911690604081013590606001356109e7565b61023b6004803603606081101561034957600080fd5b506001600160a01b03813581169160208101359091169060400135610afa565b6101136004803603604081101561037f57600080fd5b506001600160a01b0381358116916020013516610c12565b61023b600480360360408110156103ad57600080fd5b506001600160a01b038135169060200135610c6e565b61023b600480360360408110156103d957600080fd5b506001600160a01b0381358116916020013516610d02565b600080839050806001600160a01b031663f8b2cb4f846040518263ffffffff1660e01b815260040180826001600160a01b03166001600160a01b0316815260200191505060206040518083038186803b15801561044d57600080fd5b505afa158015610461573d6000803e3d6000fd5b505050506040513d602081101561047757600080fd5b5051949350505050565b600080839050806001600160a01b031663f1b8a9b7846040518263ffffffff1660e01b815260040180826001600160a01b03166001600160a01b0316815260200191505060206040518083038186803b15801561044d57600080fd5b600080829050806001600160a01b031663fde924f76040518163ffffffff1660e01b815260040160206040518083038186803b15801561051c57600080fd5b505afa158015610530573d6000803e3d6000fd5b505050506040513d602081101561054657600080fd5b50519392505050565b600080839050806001600160a01b0316632f37b624846040518263ffffffff1660e01b815260040180826001600160a01b03166001600160a01b0316815260200191505060206040518083038186803b15801561044d57600080fd5b6000546001600160a01b031681565b600080546001600160a01b031633146106045760405162461bcd60e51b8152600401808060200182810382526021815260200180610df96021913960400191505060405180910390fd5b60015460408051633555b17760e21b815290516001600160a01b0390921691600091839163d556c5dc9160048082019260209290919082900301818787803b15801561064f57600080fd5b505af1158015610663573d6000803e3d6000fd5b505050506040513d602081101561067957600080fd5b5051604080516001600160a01b0383168152905191925082917f83a48fbcfc991335314e74d0496aab6a1987e992ddc85dddbcc4d6dd6ef2e9fc9181900360200190a15091505090565b600080829050806001600160a01b031663d4cadf686040518163ffffffff1660e01b815260040160206040518083038186803b15801561051c57600080fd5b6000546001600160a01b0316331461074b5760405162461bcd60e51b8152600401808060200182810382526021815260200180610df96021913960400191505060405180910390fd5b604080516324dacaa960e11b81528215156004820152905183916001600160a01b038316916349b595529160248082019260009290919082900301818387803b15801561079757600080fd5b505af11580156107ab573d6000803e3d6000fd5b50505050505050565b6000546001600160a01b031633146107fd5760405162461bcd60e51b8152600401808060200182810382526021815260200180610df96021913960400191505060405180910390fd5b60408051631feeed5160e11b81526001600160a01b038581166004830152602482018590526044820184905291518692831691633fdddaa291606480830192600092919082900301818387803b15801561085657600080fd5b505af115801561086a573d6000803e3d6000fd5b5050604080516001600160a01b03808a168252881660208201528082018790526060810186905290517f9a99b71c4cf232ef1b26dafda743fa55ea29e8675f5fb3b087e4521d9d6589299350908190036080019150a15050505050565b60606000829050806001600160a01b031663cc77828d6040518163ffffffff1660e01b815260040160006040518083038186803b15801561090757600080fd5b505afa15801561091b573d6000803e3d6000fd5b505050506040513d6000823e601f3d908101601f19168201604052602081101561094457600080fd5b810190808051604051939291908464010000000082111561096457600080fd5b90830190602082018581111561097957600080fd5b825186602082028301116401000000008211171561099657600080fd5b82525081516020918201928201910280838360005b838110156109c35781810151838201526020016109ab565b50505050905001604052505050915050919050565b6001546001600160a01b031681565b6000546001600160a01b03163314610a305760405162461bcd60e51b8152600401808060200182810382526021815260200180610df96021913960400191505060405180910390fd5b60408051631c9c3ca760e31b81526001600160a01b03858116600483015260248201859052604482018490529151869283169163e4e1e53891606480830192600092919082900301818387803b158015610a8957600080fd5b505af1158015610a9d573d6000803e3d6000fd5b5050604080516001600160a01b03808a168252881660208201528082018790526060810186905290517f194cdbdc6669374257b08c6948a71e61892de19c5d86896c9e7e26fc71c1ec6f9350908190036080019150a15050505050565b6000546001600160a01b03163314610b435760405162461bcd60e51b8152600401808060200182810382526021815260200180610df96021913960400191505060405180910390fd5b6040805163095ea7b360e01b81526001600160a01b038481166004830152602482018490529151859283169163095ea7b39160448083019260209291908290030181600087803b158015610b9657600080fd5b505af1158015610baa573d6000803e3d6000fd5b505050506040513d6020811015610bc057600080fd5b5050604080516001600160a01b0380871682528516602082015280820184905290517fc532e6b60637d86dd3fe55f7548ed169de9c79cfdef610593bea3569f079bc659181900360600190a150505050565b600080839050806001600160a01b031663948d8ce6846040518263ffffffff1660e01b815260040180826001600160a01b03166001600160a01b0316815260200191505060206040518083038186803b15801561044d57600080fd5b6000546001600160a01b03163314610cb75760405162461bcd60e51b8152600401808060200182810382526021815260200180610df96021913960400191505060405180910390fd5b6000829050806001600160a01b03166334e19907836040518263ffffffff1660e01b815260040180828152602001915050600060405180830381600087803b15801561079757600080fd5b6000546001600160a01b03163314610d4b5760405162461bcd60e51b8152600401808060200182810382526021815260200180610df96021913960400191505060405180910390fd5b6040805163cf5e7bd360e01b81526001600160a01b0383811660048301529151849283169163cf5e7bd391602480830192600092919082900301818387803b158015610d9657600080fd5b505af1158015610daa573d6000803e3d6000fd5b5050604080516001600160a01b0380881682528616602082015281517f851fb1ea978289f547bc8cf664ad4d224d0dcd927c0fcb8a62d887aed42343c49450908190039091019150a150505056fe4f6e6c79206f776e65722063616e2063616c6c20746869732066756e6374696f6ea265627a7a72315820fce8c04a4a7fd5d022f3bc8b7370485003cf319a05984c63b1339d8fa14d46af64736f6c634300050c0032",
  "source": "pragma solidity 0.5.12;\n\nimport \"./BFactory.sol\";\nimport \"./BPool.sol\";\nimport \"./test/TToken.sol\";\n\n\ncontract PoolManager {\n    address public owner;\n    address public factory;\n\n    event PoolCreated(address bpoolAddress);\n    event TokenBound(address currentPool, address token, uint balance, uint denorm);\n    event TokenRebound(address currentPool, address token, uint balance, uint denorm);\n    event TokenUnbound(address currentPool, address token);\n\n    event TokenApproved(address token, address currentPoolAddress, uint balance);\n\n    modifier onlyOwner {\n        require(msg.sender == owner, \"Only owner can call this function\");\n        _;\n    }\n\n    constructor(address _factory) public {\n        owner = msg.sender;\n        factory = _factory;\n    }\n\n    //@dev creates a new smart pool that will be controlled by pool manager\n    function createPool()\n        public\n        onlyOwner\n        returns(BPool)\n    {\n        BFactory bfactory = BFactory(factory);\n        BPool bpool = bfactory.newBPool();\n        address poolAddress = address(bpool);\n        emit PoolCreated(poolAddress);\n        return bpool;\n    }\n\n    //@dev approves a new token for binding by a smart pool\n    function approveToken(address _token, address _currentPoolAddress, uint _balance)\n        public\n        onlyOwner\n    {\n        TToken token = TToken(_token);\n        token.approve(_currentPoolAddress, _balance);\n        emit TokenApproved(_token, _currentPoolAddress, _balance);\n    }\n\n    //@dev checks whether a token is bound to the current smart pool\n    function checkToken(address _currentPoolAddress, address _token)\n        external\n        view\n        returns(bool)\n    {\n        BPool currentPool = BPool(_currentPoolAddress);\n        return currentPool.isBound(_token);\n    }\n\n    //@dev returns the normalized weight of a token\n    function normalizedWeight(address _currentPoolAddress, address _token)\n        external\n        view\n        returns(uint)\n    {\n        BPool currentPool = BPool(_currentPoolAddress);\n        return currentPool.getNormalizedWeight(_token);\n    }\n\n    //@dev returns the denormalized weight of a token\n    function denormalizedWeight(address _currentPoolAddress, address _token)\n        external\n        view\n        returns(uint)\n    {\n        BPool currentPool = BPool(_currentPoolAddress);\n        return currentPool.getDenormalizedWeight(_token);\n    }\n\n    //@dev returns the balance of a token\n    function tokenBalance(address _currentPoolAddress, address _token)\n        external\n        view\n        returns(uint)\n    {\n        BPool currentPool = BPool(_currentPoolAddress);\n        return currentPool.getBalance(_token);\n    }\n\n    //@dev returns array of tokens bound to the current smart pool\n    function currentTokens(address _currentPoolAddress)\n        public\n        view\n        returns(address[] memory)\n    {\n        BPool currentPool = BPool(_currentPoolAddress);\n        return currentPool.getCurrentTokens();\n    }\n\n    //@dev binds a new token to the smart pool that is current being managed\n    function bindToken(address _currentPoolAddress, address _token, uint _balance, uint _denorm)\n        public\n        onlyOwner\n    {\n        BPool currentPool = BPool(_currentPoolAddress);\n        currentPool.bind(_token, _balance, _denorm);\n        emit TokenBound(_currentPoolAddress, _token, _balance, _denorm);\n    }\n\n    //@dev rebinds a token to the smart pool, changing the weight and/or balance\n    function rebindToken(address _currentPoolAddress, address _token, uint _balance, uint _denorm)\n        public\n        onlyOwner\n    {\n        BPool currentPool = BPool(_currentPoolAddress);\n        currentPool.rebind(_token, _balance, _denorm);\n        emit TokenRebound(_currentPoolAddress, _token, _balance, _denorm);\n    }\n\n    //@dev unbinds a token from the smart pool\n    function unbindToken(address _currentPoolAddress, address _token)\n        public\n        onlyOwner\n    {\n        BPool currentPool = BPool(_currentPoolAddress);\n        currentPool.unbind(_token);\n        emit TokenUnbound(_currentPoolAddress, _token);\n    }\n\n    //@dev sets the swap fee\n    function setFee(address _currentPoolAddress, uint _fee)\n        public\n        onlyOwner\n    {\n        BPool currentPool = BPool(_currentPoolAddress);\n        currentPool.setSwapFee(_fee);\n    }\n\n    //@dev returns the swap fee of the current smart pool\n    function swapFee(address _currentPoolAddress)\n        public\n        view\n        returns(uint)\n    {\n        BPool currentPool = BPool(_currentPoolAddress);\n        return currentPool.getSwapFee();\n    }\n\n    //@dev sets the current pool public\n    function setPublic(address _currentPoolAddress, bool _public)\n        public\n        onlyOwner\n    {\n        BPool currentPool = BPool(_currentPoolAddress);\n        currentPool.setPublicSwap(_public);\n    }\n\n    //@dev returns true if the current smart pool is public\n    function isPublic(address _currentPoolAddress)\n        public\n        view\n        returns(bool)\n    {\n        BPool currentPool = BPool(_currentPoolAddress);\n        return currentPool.isPublicSwap();\n    }\n}\n",
  "sourcePath": "/home/canna/Рабочий стол/D/contracts/PoolManager.sol",
  "compiler": {
    "name": "solc",
    "version": "0.5.12+commit.7709ece9.Emscripten.clang"
  },
  "schemaVersion": "3.3.3",
  "updatedAt": "2021-03-16T19:36:45.566Z",
  "devdoc": {
    "methods": {}
  },
  "userdoc": {
    "methods": {}
  }
}